{
  "contractName": "FundHost",
  "abi": [
    {
      "inputs": [],
      "payable": false,
      "stateMutability": "nonpayable",
      "type": "constructor"
    },
    {
      "constant": true,
      "inputs": [],
      "name": "SPONSOR",
      "outputs": [
        {
          "internalType": "contract SponsorWhitelistControl",
          "name": "",
          "type": "address"
        }
      ],
      "payable": false,
      "stateMutability": "view",
      "type": "function"
    },
    {
      "constant": false,
      "inputs": [
        {
          "internalType": "uint256",
          "name": "_shareAmount",
          "type": "uint256"
        }
      ],
      "name": "setTotalLpAmount",
      "outputs": [],
      "payable": false,
      "stateMutability": "nonpayable",
      "type": "function"
    },
    {
      "constant": false,
      "inputs": [
        {
          "internalType": "address",
          "name": "to",
          "type": "address"
        },
        {
          "internalType": "uint256",
          "name": "amount",
          "type": "uint256"
        }
      ],
      "name": "setUserLpAmount",
      "outputs": [],
      "payable": false,
      "stateMutability": "nonpayable",
      "type": "function"
    },
    {
      "constant": true,
      "inputs": [],
      "name": "getTotalLpAmount",
      "outputs": [
        {
          "internalType": "uint256",
          "name": "",
          "type": "uint256"
        }
      ],
      "payable": false,
      "stateMutability": "view",
      "type": "function"
    },
    {
      "constant": true,
      "inputs": [
        {
          "internalType": "address",
          "name": "to",
          "type": "address"
        }
      ],
      "name": "getUserLpAmount",
      "outputs": [
        {
          "internalType": "uint256",
          "name": "",
          "type": "uint256"
        }
      ],
      "payable": false,
      "stateMutability": "view",
      "type": "function"
    }
  ],
  "bytecode": "0x608060405234801561001057600080fd5b50606060016040519080825280602002602001820160405280156100435781602001602082028038833980820191505090505b50905060008160008151811061005557fe5b602002602001019073ffffffffffffffffffffffffffffffffffffffff16908173ffffffffffffffffffffffffffffffffffffffff168152505073088800000000000000000000000000000000000173ffffffffffffffffffffffffffffffffffffffff1663fe15156c826040518263ffffffff1660e01b81526004018080602001828103825283818151815260200191508051906020019060200280838360005b838110156101125780820151818401526020810190506100f7565b5050505090500192505050600060405180830381600087803b15801561013757600080fd5b505af115801561014b573d6000803e3d6000fd5b50505050506102898061015f6000396000f3fe608060405234801561001057600080fd5b50600436106100575760003560e01c80630a87684f1461005c5780631d073a7a146100b45780634010e6d0146100fe5780634593d3111461012c578063d1a631b31461014a575b600080fd5b61009e6004803603602081101561007257600080fd5b81019080803573ffffffffffffffffffffffffffffffffffffffff169060200190929190505050610198565b6040518082815260200191505060405180910390f35b6100bc6101e1565b604051808273ffffffffffffffffffffffffffffffffffffffff1673ffffffffffffffffffffffffffffffffffffffff16815260200191505060405180910390f35b61012a6004803603602081101561011457600080fd5b81019080803590602001909291905050506101f9565b005b610134610203565b6040518082815260200191505060405180910390f35b6101966004803603604081101561016057600080fd5b81019080803573ffffffffffffffffffffffffffffffffffffffff1690602001909291908035906020019092919050505061020c565b005b6000600160008373ffffffffffffffffffffffffffffffffffffffff1673ffffffffffffffffffffffffffffffffffffffff168152602001908152602001600020549050919050565b73088800000000000000000000000000000000000181565b8060008190555050565b60008054905090565b80600160008473ffffffffffffffffffffffffffffffffffffffff1673ffffffffffffffffffffffffffffffffffffffff16815260200190815260200160002081905550505056fea265627a7a72315820b1f625f228ca23811beac98df24d7b8d7d399a68cc99be5cad5ae4950cdc18aa64736f6c63430005100032",
  "source": "pragma solidity ^0.5.11;\n\n\nimport \"@openzeppelin/contracts/math/SafeMath.sol\";\nimport \"@openzeppelin/contracts/introspection/IERC1820Registry.sol\";\nimport \"@openzeppelin/contracts/token/ERC777/IERC777Recipient.sol\";\nimport \"@openzeppelin/contracts/utils/Address.sol\";\nimport \"@openzeppelin/contracts/ownership/Ownable.sol\";\nimport \"@openzeppelin/contracts/token/ERC20/IERC20.sol\";\nimport \"@openzeppelin/contracts/token/ERC20/SafeERC20.sol\";\nimport \"@openzeppelin/contracts/token/ERC777/IERC777.sol\";\n\ncontract SponsorWhitelistControl {\n    // ------------------------------------------------------------------------\n    // Someone will sponsor the gas cost for contract `contract_addr` with an\n    // `upper_bound` for a single transaction.\n    // ------------------------------------------------------------------------\n    function set_sponsor_for_gas(address contract_addr, uint upper_bound) public payable {\n    }\n\n    // ------------------------------------------------------------------------\n    // Someone will sponsor the storage collateral for contract `contract_addr`.\n    // ------------------------------------------------------------------------\n    function set_sponsor_for_collateral(address contract_addr) public payable {\n    }\n\n    // ------------------------------------------------------------------------\n    // Add commission privilege for address `user` to some contract.\n    // ------------------------------------------------------------------------\n    function add_privilege(address[] memory) public {\n    }\n\n    // ------------------------------------------------------------------------\n    // Remove commission privilege for address `user` from some contract.\n    // ------------------------------------------------------------------------\n    function remove_privilege(address[] memory) public {\n    }\n}\n\ncontract FundHost {\n  using SafeMath  for uint;\n  using Address for address;\n  using SafeERC20 for IERC20;\n\n  uint totalLpAmount;\n  mapping(address => uint) userLpAmount;\n\n  SponsorWhitelistControl constant public SPONSOR = SponsorWhitelistControl(address(0x0888000000000000000000000000000000000001));\n\n  constructor()\n      public\n  {\n      // register all users as sponsees\n      address[] memory users = new address[](1);\n      users[0] = address(0);\n      SPONSOR.add_privilege(users);\n  }\n\n  function setTotalLpAmount(uint _shareAmount) external {\n    totalLpAmount = _shareAmount;\n  }\n\n  function setUserLpAmount(address to, uint amount) external {\n    userLpAmount[to] = amount;\n  }\n\n  function getTotalLpAmount() external view returns(uint){\n      return totalLpAmount;\n  }\n\n  function getUserLpAmount(address to) external view returns(uint) {\n    return userLpAmount[to];\n  }\n\n\n}\n",
  "sourcePath": "/Users/junhuazhou/Documents/GitHub/conflux-contracts/Donation/contracts/Fundhost.sol",
  "compiler": {
    "name": "solc",
    "version": "0.5.16+commit.9c3226ce.Emscripten.clang"
  },
  "schemaVersion": "3.2.0",
  "updatedAt": "2020-09-21T00:58:26.939Z",
  "devdoc": {
    "methods": {}
  },
  "userdoc": {
    "methods": {}
  }
}