{
  "contractName": "SponsorWhitelistControl",
  "abi": [
    {
      "constant": false,
      "inputs": [
        {
          "internalType": "address",
          "name": "contract_addr",
          "type": "address"
        },
        {
          "internalType": "uint256",
          "name": "upper_bound",
          "type": "uint256"
        }
      ],
      "name": "set_sponsor_for_gas",
      "outputs": [],
      "payable": true,
      "stateMutability": "payable",
      "type": "function"
    },
    {
      "constant": false,
      "inputs": [
        {
          "internalType": "address",
          "name": "contract_addr",
          "type": "address"
        }
      ],
      "name": "set_sponsor_for_collateral",
      "outputs": [],
      "payable": true,
      "stateMutability": "payable",
      "type": "function"
    },
    {
      "constant": false,
      "inputs": [
        {
          "internalType": "address[]",
          "name": "",
          "type": "address[]"
        }
      ],
      "name": "add_privilege",
      "outputs": [],
      "payable": false,
      "stateMutability": "nonpayable",
      "type": "function"
    },
    {
      "constant": false,
      "inputs": [
        {
          "internalType": "address[]",
          "name": "",
          "type": "address[]"
        }
      ],
      "name": "remove_privilege",
      "outputs": [],
      "payable": false,
      "stateMutability": "nonpayable",
      "type": "function"
    }
  ],
  "bytecode": "0x608060405234801561001057600080fd5b506102a2806100206000396000f3fe60806040526004361061003f5760003560e01c80630862bf681461004457806344c0bd2114610088578063e9ac3d4a1461014d578063fe15156c1461019b575b600080fd5b6100866004803603602081101561005a57600080fd5b81019080803573ffffffffffffffffffffffffffffffffffffffff169060200190929190505050610260565b005b34801561009457600080fd5b5061014b600480360360208110156100ab57600080fd5b81019080803590602001906401000000008111156100c857600080fd5b8201836020820111156100da57600080fd5b803590602001918460208302840111640100000000831117156100fc57600080fd5b919080806020026020016040519081016040528093929190818152602001838360200280828437600081840152601f19601f820116905080830192505050505050509192919290505050610263565b005b6101996004803603604081101561016357600080fd5b81019080803573ffffffffffffffffffffffffffffffffffffffff16906020019092919080359060200190929190505050610266565b005b3480156101a757600080fd5b5061025e600480360360208110156101be57600080fd5b81019080803590602001906401000000008111156101db57600080fd5b8201836020820111156101ed57600080fd5b8035906020019184602083028401116401000000008311171561020f57600080fd5b919080806020026020016040519081016040528093929190818152602001838360200280828437600081840152601f19601f82011690508083019250505050505050919291929050505061026a565b005b50565b50565b5050565b5056fea265627a7a72315820bae4198153392014e5c8f50b3f6f180436b6293ed4a389d9a2a470435623300664736f6c63430005100032",
  "source": "pragma solidity ^0.5.11;\n\nimport \"@openzeppelin/contracts/math/SafeMath.sol\";\nimport \"@openzeppelin/contracts/introspection/IERC1820Registry.sol\";\nimport \"@openzeppelin/contracts/token/ERC777/IERC777Recipient.sol\";\nimport \"@openzeppelin/contracts/utils/Address.sol\";\nimport \"@openzeppelin/contracts/ownership/Ownable.sol\";\nimport \"@openzeppelin/contracts/token/ERC20/IERC20.sol\";\nimport \"@openzeppelin/contracts/token/ERC20/SafeERC20.sol\";\nimport \"@openzeppelin/contracts/token/ERC777/IERC777.sol\";\n\ncontract SponsorWhitelistControl {\n    // ------------------------------------------------------------------------\n    // Someone will sponsor the gas cost for contract `contract_addr` with an\n    // `upper_bound` for a single transaction.\n    // ------------------------------------------------------------------------\n    function set_sponsor_for_gas(address contract_addr, uint upper_bound) public payable {\n    }\n\n    // ------------------------------------------------------------------------\n    // Someone will sponsor the storage collateral for contract `contract_addr`.\n    // ------------------------------------------------------------------------\n    function set_sponsor_for_collateral(address contract_addr) public payable {\n    }\n\n    // ------------------------------------------------------------------------\n    // Add commission privilege for address `user` to some contract.\n    // ------------------------------------------------------------------------\n    function add_privilege(address[] memory) public {\n    }\n\n    // ------------------------------------------------------------------------\n    // Remove commission privilege for address `user` from some contract.\n    // ------------------------------------------------------------------------\n    function remove_privilege(address[] memory) public {\n    }\n}\n\ninterface IFundHost {\n    function getShareAmount(address to) external view returns (uint256);\n    function getTotalShareAmount() external view returns(uint256);\n}\n\ncontract DonationFC is IERC777Recipient, Ownable\n{\n    using SafeMath for uint256;\n    using Address for address;\n    using SafeERC20 for IERC20;\n\n    IERC1820Registry private _erc1820 = IERC1820Registry(0x866aCA87FF33a0ae05D2164B3D999A804F583222);\n    // keccak256(\"ERC777TokensRecipient\")\n    bytes32 constant private TOKENS_RECIPIENT_INTERFACE_HASH =\n      0xb281fc8c12954d22544db45de3159a39272895b169a852b314f9cc762e44c53b;\n\n    SponsorWhitelistControl constant public SPONSOR = SponsorWhitelistControl(address(0x0888000000000000000000000000000000000001));\n\n    event TokenTransfer(address indexed tokenAddress, address from, address  to, uint256 value);\n    event Transfered(address indexed from, address to, uint256 amount);\n\n    address public fcAddr;\n    struct Donation {\n        uint256 totalAmount;\n        uint256 balance;\n        mapping(address => uint256) users;\n        uint256 depositCount;\n    }\n\n    mapping(address => Donation) public donations;\n\n    uint256 public tlv; // total locked value\n    uint256 public totalReward;\n    uint256 public totalAllocPoint;\n    uint256 public constant ONE = 1e18;\n    struct PoolInfo {\n        uint256 allocPoint;\n        address targetAddress; //  moonswapPair or stakingPool\n    }\n\n    mapping(address => PoolInfo) public targetPools;\n\n    struct UserInfo {\n        uint256 shareAmount; //\n        uint256 withdrawFCAmount;\n    }\n\n    // targetAddres => userWallet\n    mapping(address => mapping(address => UserInfo)) public airdropUsers;\n\n    constructor()\n        Ownable()\n        public\n    {\n\n         _erc1820.setInterfaceImplementer(address(this), TOKENS_RECIPIENT_INTERFACE_HASH, address(this));\n\n         // register all users as sponsees\n        address[] memory users = new address[](1);\n        users[0] = address(0);\n        SPONSOR.add_privilege(users);\n    }\n\n    function setFcAddr(address _fcAddr) external onlyOwner {\n        fcAddr = _fcAddr;\n    }\n\n    function setPool(address _targetAddress, uint256 _allocPoint) external onlyOwner {\n        PoolInfo storage poolInfo = targetPools[_targetAddress];\n        totalAllocPoint = totalAllocPoint.sub(poolInfo.allocPoint).add(_allocPoint);\n        poolInfo.allocPoint = _allocPoint;\n        poolInfo.targetAddress = _targetAddress;\n    }\n\n    function queryTotalReward(uint256 _tlv) external view returns(uint256 _totalReward){\n        _totalReward = _calcTotalReward(_tlv);\n    }\n\n    function _calcTotalReward(uint256 _tlv) internal view returns(uint256 _totalReward){\n        _totalReward = _tlv.div(100);\n        uint256 _balance = IERC777(fcAddr).balanceOf(address(this));\n        if( _totalReward > _balance.div(ONE)){\n            _totalReward = _balance.div(ONE);\n        }\n    }\n\n    function setTLV(uint256 _tlv) external onlyOwner {\n        tlv = _tlv;\n        totalReward = _calcTotalReward(tlv);\n    }\n\n\n    function getFcBalance() external view returns(uint256) {\n    \treturn IERC777(fcAddr).balanceOf(address(this));\n    }\n\n    function getUserReward(address _targetAddres, address _user) external view returns(uint256){\n        return _calcUserReward(_targetAddres, _user);\n    }\n\n    function _calcUserReward(address _targetAddres, address _user) internal view returns(uint256){\n        PoolInfo storage poolInfo = targetPools[_targetAddres];\n        require(poolInfo.targetAddress != address(0), \"address is not exists\");\n        uint256 _poolReward = totalReward.mul(ONE).mul(poolInfo.allocPoint).div(totalAllocPoint);\n        uint256 _totalShareAmount = IFundHost(_targetAddres).getTotalShareAmount();\n        uint256 _userShareAmount = IFundHost(_targetAddres).getShareAmount(_user);\n        if(_totalShareAmount > 0){\n            return _poolReward.mul(_userShareAmount).div(_totalShareAmount);\n        }else{\n            return 0;\n        }\n    }\n\n    function harvest(address _targetAddres) external {\n        uint256 _amount = _calcUserReward(_targetAddres, msg.sender);\n        require(_amount > 0, \"harvest: not amount\");\n        UserInfo storage _userInfo = airdropUsers[_targetAddres][msg.sender];\n\n        uint256 _userShareAmount = IFundHost(_targetAddres).getShareAmount(msg.sender);\n\n        _userInfo.shareAmount = _userShareAmount;\n        require(_userInfo.withdrawFCAmount < _amount, \"harvest: no balance\");\n        uint256 _withdrawAmount = _amount.sub(_userInfo.withdrawFCAmount);\n        _userInfo.withdrawFCAmount = _userInfo.withdrawFCAmount.add(_withdrawAmount);\n        Donation storage _donation = donations[fcAddr];\n        _donation.balance = _donation.balance.sub(_withdrawAmount);\n        IERC777(fcAddr).send(address(msg.sender), _withdrawAmount, \"\");\n\n        emit Transfered(address(this), msg.sender, _withdrawAmount);\n    }\n\n    // MultiSigWalletWithTimeLock future\n    // Withdraw EMERGENCY ONLY.\n    function emergencyWithdraw(address tokenAddress, address to, uint256 _amount) external onlyOwner {\n        Donation storage _donation = donations[tokenAddress];\n        //require(_donation.balance >= _amount, \"emergencyWithdraw: balance no enough~\");\n        _donation.balance = _donation.balance.sub(_amount);\n        IERC777(tokenAddress).send(to, _amount, \"\");\n    }\n\n    function tokensReceived(address operator, address from, address to, uint256 amount,\n        bytes calldata userData,\n        bytes calldata operatorData) external {\n\n        require(msg.sender == fcAddr, \"only receive fc token\");\n\n        Donation storage _donation = donations[fcAddr];\n        _donation.totalAmount = _donation.totalAmount.add(amount);\n        _donation.balance = _donation.balance.add(amount);\n        _donation.depositCount = _donation.depositCount.add(1);\n        _donation.users[from] = _donation.users[from].add(amount);\n\n        emit TokenTransfer(msg.sender, from, to, amount);\n    }\n\n}\n",
  "sourcePath": "/Users/junhuazhou/Documents/GitHub/conflux-contracts/Donation/contracts/DonationFC.sol",
  "compiler": {
    "name": "solc",
    "version": "0.5.16+commit.9c3226ce.Emscripten.clang"
  },
  "schemaVersion": "3.2.0",
  "updatedAt": "2020-09-15T03:38:59.070Z",
  "devdoc": {
    "methods": {}
  },
  "userdoc": {
    "methods": {}
  }
}